S00A000050552E7372656375
S11300000C9487050C94A4050C94A4050C94A405E5
S11300100C94A4050C94A4050C94A4050C94A405B8
S11300200C94A4050C94A4050C94A4050C94181326
S11300300C94A4050C94A4050C94A4050C94D91256
S11300400C94A4050C94A4050C94B6120C94A40569
S11300500C9480120C94A4050C94A4050C94A4058F
S11300600C94A4050C94A4050C94A4050C94A40568
S11300700C94A4050C94A4050C94A4056A0C710CAE
S1130080780C7F0C860C8D0C940C9B0CA20CA90C88
S1130090DC0CE00CE40CE80CEC0CF70C040D090D82
S11300A0090DCF0C1915281536154415531562156D
S11300B076158A15A315C915FC150C161B162A16D8
S11300C0381662169716A616CC1608173117581745
S11300D077179617B517D417F31712183118501845
S11300E06F188E18AD18CC18EB180A19291948196D
S11300F067198619A519C419E319011A1D1A391AA1
S1130100551A711A8D1AA91AC51AE11AFD1A191B62
S1130110351B511B6D1B891BA51BC11BDD1BF91B4B
S1130120151C311C4D1C691C851CA11CBD1CD91C33
S1130130F51C111D2D1D491D651D811D9D1DB91D1C
S1130140D51DF11D0D1E291E451E611E7D1E991E05
S1130150CB1EE11EF71E0D1F231FF021371F441F66
S1130160501F5C1F671F7C1F1221F021F021F0211A
S1130170F021F021F021F021F021F021F021F021F3
S1130180F021F021F021F021F0216F167D168B165D
S1130190422246224A2256225A2276227A227E225B
S11301A0FA13FA138222FA13FA13FA13FA13FA134C
S11301B0FA13FA13FA13FA13FA1352224E22FA1309
S11301C0FA13FA13FA13FA13FA13FA13FA13FA13C3
S11301D0FA13FA13FA13FA13FA13FA13FA13FA13B3
S11301E0FA135E22622266226A226E2272220000C2
S11301F0000000000000000000000080C0603030FB
S113020018080C0C06060602020303030303030387
S113021003030303030302020606060C0C0818304A
S11302203060C080000000000000000000000000FA
S11302300000000000000000000000000000FC0FAF
S11302400100F010000000000000000000000000A9
S1130250000000000000000000000000000000009A
S113026000000010F000010FFC000000000000007E
S1130270000000000000000000000000000000007A
S113028000000F7EE08007FEF00000808080C0C088
S1130290C0C0C0C080000000000080C0C0C0C0C09A
S11302A0C08080800000F0FE0780E07E0F00000028
S11302B000000000000000000000000000C0E0306A
S11302C03060E080000000000107FEFF03000F1F04
S11302D07FFFFFFFFFFF7F1F0F00800080000F1FC5
S11302E07FFFFFFFFFFF7F3F0F0003FFFE070100BB
S11302F000000080E0603030E0C00000000070F8D2
S1130300CC8783C0C0C0C183860C0C181830332F2F
S11303107870F0E060E0C08100000000FEFF7F0024
S11303207FFFFE0000000081C0E060E0F070782FE5
S1130330333018180C0C8683C1C0C0C08387CCF836
S1130340700000000000000000000001010303062B
S113035006040C08181030EFFE031CC1FF4CF89083
S1130360F020E020E020F090F84CFFC11C03FEEFE9
S1130370301018080C0406060303010100000000F5
S11303800000000000000000000040F0B010103039
S11303903030301818080C048682C3416F3860C1AD
S11303A0830207040F090F090F090F04070283C111
S11303B060381F31236246C48C88181830303030BE
S11303C010103070C0800000000000000000000128
S11303D003077EC0C0E0703C0E0603030101000069
S11303E000000000010103030206060606060203DC
S11303F003010100000000000000000001010303EC
S1130400060E3C70E0C0C67F030100000000071D1B
S1130410274282040810204080402020D8242498B9
S11304208080808080C04040404040404040404008
S1130430404040404040C08080808080982424D840
S11304402020408040201008048242271D0700001D
S1130450804040B14A442231488C12A344289C472E
S1130460300E020202020201010101010101010137
S1130470010101010102020202020E30479C2844DC
S1130480A3128C483122444AB1404080000000004D
S113049001020201003EE20AFB090584E23198C828
S11304A06C24246CC89830E08080808080808080B8
S11304B08080808080808080808080808080818235
S11304C0840509FB0AE23E0001020201000000006B
S11304D00000000000000FF8037C80071C30674C0C
S11304E0D89090D84C67301C070404040404040416
S11304F00404040404FC8484E42424E48484FC04C8
S113050007807C03F80F00000000000000000000DA
S113051000000000000000011FF0077880000000C8
S1130520000000C0C0C0C0C0800000F0F03030F057
S1130530E00000C0C0C0C0C0C000000000000080D7
S11305407807F01F01000000000000000000000018
S113055000000000000000000081473C71C61860E4
S1130560800000FFFF0C0C0F0700003F3F33333FB8
S11305701D0000FFFFCCCCFC780000806018C67121
S11305803C47810000000000000000000000000063
S11305900000000080601846219088444221170C16
S11305A0193264C890204080000000000000000060
S11305B00000000080402090C86432190C172142CA
S11305C0448890214618608000000000000000006C
S11305D0000000000302020101000000000000000E
S11305E0000000000103060C091A12342468682470
S11305F034121A090C060301000000000000000078
S113060000000001010202030000000000000000DD
S113061000000000000000000000000000000000D6
S113062000000000000000000000000000000000C6
S113063000000000000000000000000000000000B6
S113064000000000000000000000000000000000A6
S11306500000000000000000000000000000000096
S11306600000000000000000000000000000000086
S11306700000000000000000000000000000000076
S11306800000000000000000000000000000000066
S11306900000000000000000000000000000000056
S11306A00000000000000000000000000000000046
S11306B000000000004F00000007000700247E2413
S11306C07E24242A7F2A12462610C8C4040201026A
S11306D0040005030000001C2241000041221C000C
S11306E014083E08143030FCFC3000503000000880
S11306F008080808006060000020100804023E5149
S113070049453E00427F40004261514946214145EE
S11307104B311814127F1027454545393C4A494945
S11307203001710905033649494936064949291EEC
S1130730003636000000563600000814224100142A
S113074014141414004122140802015109063249F8
S113075071413E7E1111117E7F494949363E414126
S113076041227F4141221C7F494949417F090909AE
S1130770013E4149493A7F0808087F00417F410012
S11307802040413F017F081422417F404040407F88
S1130790020C027F7F0408107F3E4141413E7F09E5
S11307A00909063E4151215E7F09192946464949F6
S11307B0493101017F01013F4040403F1F2040205B
S11307C01F3F4070403F6314081463070870080714
S11307D06151494543007F41410002040810200053
S11307E041417F00040201020440404040400001B6
S11307F002040020545454787F4844443838444414
S11308004420384444487F3854545418087E09011D
S1130810020C5252523E7F0804047800447D40008A
S11308202040443D007F1028440000417F40007C6C
S1130830041804787C0804047838444444387C144C
S1130840141408081414187C7C080404084854542C
S11308505420043F4440203C4040207C1C20402045
S11308601C3C4030403C44281028440C5050503C20
S11308704464544C44000836410000007F000000EA
S11308804136080002010202017E7979797E000076
S11308900000000000000000000000000000000054
S11308A00000000000000000000000000000000044
S11308B00000000000000000000000000000000034
S11308C00000000000000000000000000000000024
S11308D00000000000000000000000000000000014
S11308E00000000000000000000000000000000004
S11308F000000000000000000000000000000000F4
S113090000000000000000000000000000000000E3
S113091000000000000000000000000000000000D3
S113092000000000000000000000000000000000C3
S113093000000000000000000000000000000000B3
S113094000000000000000000000000000000000A3
S11309500000000000000000000000000000000093
S11309600000000000000000000000000000000083
S11309700000000000000000000000000000000073
S11309800000000000000000000000000000000063
S11309900000000000000000000000000000000053
S11309A00000000000000000000000000000000043
S11309B00000000000000000000000000000000033
S11309C000000000000000000000000000007E1194
S11309D011117E7F494949337F494949367F0101D5
S11309E00103E0514F41FF7F4949494177087F089E
S11309F07741494949367F1008047F7C2112097CDC
S1130A007F0814224120413F017F7F020C027F7F37
S1130A100808087F3E4141413E7F0101017F7F0973
S1130A200909063E4141412201017F010147281085
S1130A3008071C227F221C63140814637F40404073
S1130A40FF070808087F7F407F407F7F407F40FF8B
S1130A50017F4848307F4830007F007F484830227B
S1130A604149493E7F083E413E462919097F2054A9
S1130A705454783C4A4A49317C545428007C040438
S1130A80040CE0544C44FC38545454186C107C103E
S1130A906C44445454287C2010087C7C4122117CF2
S1130AA07C1028440020443C047C7C0810087C7C96
S1130AB01010107C38444444387C0404047C7C14B6
S1130AC0141408384444442004047C04040C505096
S1130AD0503C3048FC483044281028447C40404076
S1130AE0FC0C1010107C7C407C407C7C407C40FCE6
S1130AF0047C5050207C5050207C7C505050202846
S1130B00445454387C10384438085434147C112428
S1130B101FBECFEFD8E0DEBFCDBF16E0A0E0B1E04E
S1130B20ECE8F5E402C005900D92AC3CB107D9F7AE
S1130B3027E0ACECB6E001C01D92A234B207E1F7A5
S1130B400E9430130C94C4220C94000081E2809320
S1130B50C40082E08093C00088E98093C10086E0ED
S1130B608093C2000895882311F0429A0895429810
S1130B700895882311F0459A089545980895882387
S1130B8011F0469A089546980895882311F0449ADE
S1130B90089544980895882311F0439A089543983A
S1130BA00895882339F0419A80EF8093CD061092FE
S1130BB0CC06089541980895CF93C62F82B980E05A
S1130BC00E94BF058C2F81700E94C5058C2F8695CD
S1130BD00E94CB0582E08A95F1F781E00E94B90575
S1130BE087E08A95F1F780E00E94B905CF910895D6
S1130BF0CF93C62F82B981E00E94BF058C2F8170EC
S1130C000E94C5058C2F86950E94CB0582E08A95AB
S1130C10F1F781E00E94B90587E08A95F1F780E059
S1130C200E94B905CF910895CF93DF93D82F862FD3
S1130C30C42F642F88540E94DC056C2F80E48D0F30
S1130C400E94DC05DF91CF91089581E00E94B305F5
S1130C5063E08FE30E94DC0563E080EC0E94DC0526
S1130C6043E060E080E00E9414060895CF93DF9390
S1130C70D0E00FC043E06D2F8C2F0E94140663E078
S1130C8080E00E94F805CF5FC034A1F7DF5FD83061
S1130C9011F0C0E0EFCFDF91CF910895EF92FF9272
S1130CA00F931F93CF93DF93C82F162FE42E603436
S1130CB040F441E06E2D812F0E941406FF24F3942A
S1130CC024C042E06E2D80EC810F0E9414066894CB
S1130CD0FF24F1F81AC0FE0184916F2D0E94F805DB
S1130CE01F5F103449F442E06E2D80E00E94140628
S1130CF06894FF24F1F810E0015021960111EBCF24
S1130D006F2D80E00E94F8050DC08C2F90E0EC015F
S1130D10CC0FDD1FCC0FDD1FC80FD91FC25FD94F09
S1130D2005E0D9CFDF91CF911F910F91FF90EF9004
S1130D3008950F931F93CF93DF93FC01C62FD42FF5
S1130D408081882369F08F010F5F1F4F4D2F6C2F17
S1130D500E944E06CA5FF80181918F018111F6CF7E
S1130D60DF91CF911F910F910895DF92EF92FF923F
S1130D700F931F93CF93DF93613029F0D12C6894A4
S1130D80FF24F1F806C00F2EFFE2DF2EF02DFF2422
S1130D90F3949DE2899FE0011124C75FDA4F6894C0
S1130DA0EE24E1F84F2D6E2D8D2D0E9414068E0138
S1130DB0015F1F4F6F2D89910E94F805C017D1075D
S1130DC0C9F7E394E80185E0E812ECCFDF91CF9115
S1130DD01F910F91FF90EF90DF9008952A9882E081
S1130DE08A95F1F783B18376833689F0833469F089
S1130DF018F4833241F00BC0813609F43CC08236CA
S1130E0031F484E0089587E008958AE008952A9AE9
S1130E102B9882E08A95F1F783B18376833681F04B
S1130E20833461F018F4833239F00AC0813629F131
S1130E30823631F485E0089588E0089580E00895CD
S1130E402B9A2C9882E08A95F1F783B183768336C6
S1130E50B1F0833471F018F4833249F006C081365E
S1130E6081F0823611F486E008958FE0089589E0D8
S1130E7008958BE0089581E0089582E008958FE05D
S1130E80089583E00895F894F999FECF90E092BD17
S1130E9081BD60BDFA9AF99A78940895F894F99905
S1130EA0FECF90E092BD81BDF89A789480B5089504
S1130EB0CF92DF92FF920F931F93CF93DF930E9401
S1130EC036060F2EFEE0CF2EF4E0DF2EF02DF12CAF
S1130ED041E06F2D80E20E94140642E06F2D80E015
S1130EE00E9414068601005E1F4FE601FE018491F4
S1130EF061E00E94F805FE01B096849162E00E94D0
S1130F00F8052196C017D10789F7F394F0E4CF0EC2
S1130F10D11C88E0F812DCCFDF91CF911F910F91A3
S1130F20FF90DF90CF900895CF92DF92FF920F93BE
S1130F301F93CF93DF938091E806882379F10E9471
S1130F4036060F2EFEEECF2EF1E0DF2EF02DF12C23
S1130F5041E06F2D8EE10E94140642E06F2D80E087
S1130F600E94140686010E5D1F4FE601FE01849166
S1130F7061E00E94F805FE01B296849162E00E944D
S1130F80F8052196C017D10789F7F394F4E4CF0E3E
S1130F90D11C88E0F812DCCF1092E806DF91CF91E3
S1130FA01F910F91FF90DF90CF9008958091E806F4
S1130FB08823A1F1809169028093ED060E9458076D
S1130FC08091EB06882369F043E06CE08AE692E0C6
S1130FD00E94990644E066E08AE694E00E9499063D
S1130FE006C044E066E08DE692E00E94990643E084
S1130FF062E683E792E00E9499068091690281305B
S113100031F444E06EE681E30E944E0605C044E0FC
S11310106EE682E30E944E061092E8069091ED0679
S113102080916902981719F081E08093E806809115
S1131030EA068130D9F4809168028A3019F08B3045
S113104079F004C082E08093E9060AC081E08093CD
S1131050E90680916802809367028AE080936602C1
S113106082E08093EA0681E08093E8060895809107
S1131070E806882389F1809169028093ED060E9435
S1131080360680916902813039F440E06AE289E7EA
S113109092E00E94990606C040E06AE281E892E08C
S11310A00E949906809167028A3028F48091670231
S11310B061E00E94B506809166028A3028F480912E
S11310C0660262E00E94B50647E060E089E892E0CB
S11310D00E9499061092E8069091ED0680916902AB
S11310E0981719F081E08093E8068091EA06813030
S11310F009F048C0809168028A3019F08B30E1F120
S113110003C01092E90638C0809168028093660299
S1131110809167022091660290E0AC01440F551F54
S1131120880F991F880F991F880F991F840F951F87
S1131130820F911D81349105A4F48091670220915E
S1131140660290E0AC01440F551F880F991F880F69
S1131150991F880F991F840F951F820F911D892B4A
S113116041F41092E9068AE0809367028093660254
S113117003C083E08093E90682E08093EA0681E07D
S11311808093E80608950F931F93CF93809167028D
S113119090916602880FC82FCC0FCC0FC80F9150C6
S11311A0C90F8091E806882309F4EEC08091690292
S11311B0EDEEF6E080830C2F10E0D801A050BF4F75
S11311C08C918183A056BF4F8C918283809165025C
S11311D083838091D3068111AEC00E94360680912C
S11311E06902813039F440E06AE289E792E00E94C2
S11311F0990606C040E06AE281E892E00E949906FE
S1131200809167028A3028F48091670261E00E942D
S1131210B506809166028A3028F48091660262E005
S11312200E94B506F801E050FF4F8081843469F4D0
S113123045E06EE182E992E00E94990647E060E0B1
S113124089E892E00E9499069DC0823409F048C062
S113125045E06EE18EE992E00E9499068091690270
S11312608130F9F4F801E056FE4F8081863491F420
S11312708091EB06813039F447E060E08BEA92E03C
S11312800E9499067FC047E060E089E892E00E94EE
S1131290990678C047E060E081EC92E00E949906EC
S11312A071C0F801E056FE4F8081863491F480913C
S11312B0EB06813039F447E060E089E892E00E946F
S11312C0990660C047E060E08BEA92E00E949906CC
S11312D059C047E060E081EC92E00E94990652C058
S11312E08F34D1F445E06BE187ED92E00E949906DA
S11312F0F801E056FE4F8081863439F447E060E01F
S113130089E892E00E9499063DC047E060E081ECE4
S113131092E00E94990636C08534A1F545E064E266
S113132085EE92E00E94990647E060E089E892E049
S11313300E94990627C00E94360680916902813076
S113134039F440E06AE289E792E00E94990606C017
S113135040E06AE281E892E00E94990642E067E296
S11313608FEE92E00E94990644E061E288EF92E0F9
S11313700E94990647E060E089E892E00E9499069D
S11313801092D3061092E8069091ED0680916902BE
S1131390981719F081E08093E8063091EE068C2FBF
S11313A090E0FC01E050FF4F2081321719F031E04A
S11313B03093E8064091EF06FC01E056FE4F308181
S11313C0431719F041E04093E8065091F00640912C
S11313D06502541719F041E04093E8064091EA068B
S11313E0413009F04EC0409168024A3019F04B3048
S11313F049F032C01092E9068AE080936702809334
S1131400660239C02234B9F53634A9F5209169024F
S11314102130A9F48091EB06813069F58091650251
S11314208F3449F4C093640281E08093CF0682E450
S11314308093650220C081E08093D3061CC0209174
S1131440EB06211118C0FC01E05CFE4F2FE4208361
S113145082E4809365020FC081E08093E906909155
S11314606802909367029AE09093660292E09093E8
S1131470EA068093E80682E08093EA0681E080939E
S1131480E806CF911F910F9108951F93CF93DF9397
S11314908091E806882369F10E94360642E065E1FE
S11314A083E093E00E9499061AE2C0E0D0E0FE01D6
S11314B0E05AFD4F80818A3030F044E0612F8AE2A7
S11314C00E944E0609C0FE01E05AFD4F808144E0AF
S11314D0612F805D0E944E062196145FC430D105B1
S11314E031F747E060E082E193E00E9499061092B0
S11314F0E8068091EA06813009F0F4C08091680220
S11315008A3019F08B3059F0C4C01092E906E0E635
S1131510F2E08AE08083818382838383DDC08091CB
S1131520D7068A3008F075C0809160028A30B1F421
S1131530809161028A3091F4809162028A3071F460
S1131540809163028A3051F48091EB06811199C035
S11315508091D7068F5F8093D70693C08091EB0666
S1131560882339F1909160028091DC06981318C0A9
S1131570909161028091DD06981312C090916202ED
S11315808091DE0698130CC0909163028091DF066F
S1131590981306C086E08093E9061092D5062FC002
S11315A086E18093E9068091D5068F5F8093D50606
S11315B026C0909160028091D806981318C090912B
S11315C061028091D906981312C0909162028091B1
S11315D0DA0698130CC0909163028091DB0698138D
S11315E006C084E08093E9061092D50608C086E11F
S11315F08093E9068091D5068F5F8093D506E0E657
S1131600F2E08AE080838183828383831092D70609
S113161038C085E18093E906E0E6F2E08AE0808361
S1131620818382838383E8EDF6E010821182128243
S11316301382ECEDF6E0108211821282138260E0D4
S113164080E50E94430760E081E50E94430760E073
S113165082E50E94430760E083E50E94430760E05F
S113166080E60E94430760E081E60E94430760E051
S113167082E60E94430760E083E60E9443071092DB
S1131680D7068091D506853039F58AE08093E9063E
S113169023C0809160028A3029F48091680280938B
S11316A060021AC0809161028A3029F48091680234
S11316B08093610211C0809162028A3029F4809182
S11316C068028093620208C0809163028A3021F428
S11316D0809168028093630282E08093EA0681E04D
S11316E08093E806DF91CF911F9108958091E806D9
S11316F0882399F10E94360680916902813099F419
S113170040E06AE289E792E00E94990642E067E2DB
S113171083EA94E00E94990644E067E288E293E059
S11317200E94990612C040E06AE281E892E00E94B9
S1131730990642E067E283EA94E00E94990644E055
S113174067E281E393E00E94990647E060E08AE360
S113175093E00E9499061092E8068091EA0681308F
S113176029F5809168028A3031F41092E90681E00B
S11317708093E80618C0809168028B30A1F410921F
S1131780E90680916902813021F482E08093690244
S113179007C080916902823019F481E08093690264
S11317A081E08093E80682E08093EA0608958091C0
S11317B0E8068823B1F00E94360642E064E280E540
S11317C093E00E94990644E06DE28BE093E00E946E
S11317D0990647E060E089E892E00E949906109239
S11317E0E8068091EA06813061F4809168028A30CB
S11317F011F41092E90682E08093EA0681E0809376
S1131800E80608958091E806882381F00E94360650
S113181043E062E18AE593E00E94990647E060E0D4
S113182089E892E00E9499061092E8068091EA06FF
S1131830813061F4809168028A3011F41092E906D3
S113184082E08093EA0681E08093E806089580911F
S1131850E806882309F491C00E94360640E060E05F
S11318608AE693E00E94990641E060E08AE793E00B
S11318700E94990642E060E088E893E00E9499069D
S113188043E060E088E993E00E9499068091690250
S1131890811107C044E060E088EA93E00E94990661
S11318A006C044E060E08BEB93E00E94990645E0BB
S11318B060E08FEC93E00E949906E091D2068E2FAF
S11318C090E08A30910508F04AC0FC01E25CFF4FC9
S11318D00C94AA2245E060E685EB93E00E94990609
S11318E03EC045E060E68FED93E00E94990637C064
S11318F045E060E685EE93E00E94990630C045E03D
S113190060E68AEE93E00E94990629C045E060E60D
S113191080EF93E00E94990622C045E060E683EFE1
S113192093E00E9499061BC045E060E689EF93E0CE
S11319300E94990614C045E060E68EEF93E00E9491
S113194099060DC045E060E684E094E00E949906A3
S113195006C045E060E687E094E00E94990646E010
S113196060E08EE094E00E94990647E060E089E838
S113197092E00E9499061092E8068091EA0681306E
S113198009F04DC0E09168028E2F90E0FC01319780
S1131990EA30F105F0F5E85BFF4F0C94AA221092AF
S11319A0E9066091D20680E70E94430760916902CC
S11319B081E70E9443072DC089E28093E90629C08C
S11319C08AE28093E90625C08BE28093E90621C070
S11319D08CE28093E9061DC080916902882319F086
S11319E01092690216C081E08093690212C080914E
S11319F0D206893030F48091D2068F5F8093D2066C
S1131A0008C01092D20605C08EE28093E9061092B7
S1131A10ED0682E08093EA0681E08093E80608956B
S1131A20CF92DF92EF92FF920F931F93CF93DF93A6
S1131A308091E8068823C9F10E9436068091ED065C
S1131A40811119C041E06AE28FE194E00E94990695
S1131A5043E06EE187E294E00E94990645E06EE17E
S1131A6083E394E00E94990647E060E08AE393E010
S1131A700E94990618C041E064E28FE394E00E945A
S1131A80990643E068E189E494E00E94990645E000
S1131A906BE187E594E00E94990647E060E089E8FD
S1131AA092E00E9499061092E8068091EA0681303D
S1131AB009F07FC0809168028A3039F484E0809311
S1131AC0E90681E08093E80671C0809168028B305A
S1131AD009F06CC08091ED06811165C00F2EF0E015
S1131AE0CF2EF1E0DF2EF02D0F2EF0E2EF2EF2E0FC
S1131AF0FF2EF02D00EE11E0C0E0D2E4F601D19308
S1131B006F016D2F8C2F0E944307F701C1937F0152
S1131B106C2F80EC8C0F0E944307F801C1938F0156
S1131B206C2F80E88C0F0E944307CF5FC03431F7DD
S1131B3060E080E50E94430760E081E50E9443077E
S1131B4060E082E50E94430760E083E50E9443076A
S1131B50E8EDF6E0108211821282138260E080E6E2
S1131B600E94430760E081E60E94430760E082E64A
S1131B700E94430760E083E60E944307ECEDF6E031
S1131B80108211821282138260E080E70E94430770
S1131B901092D20661E081E70E94430781E08093BE
S1131BA069028093ED0681E08093E80682E08093E9
S1131BB0EA06DF91CF911F910F91FF90EF90DF9094
S1131BC0CF9008958091E806882381F00E9436061C
S1131BD043E061E284E694E00E94990645E067E20E
S1131BE08FE694E00E9499061092E80680916902BB
S1131BF0882329F01092E90681E08093E806809119
S1131C00EA06813031F482E08093EA0681E0809331
S1131C10E80608950F931F93CF93DF938091E8060E
S1131C208823E9F10E94360642E065E183E093E00F
S1131C300E94990643E065E188E794E00E949906D2
S1131C401AE2C0E0D0E0FE01E05AFD4F80818A3004
S1131C5030F045E0612F8AE20E944E0609C0FE0181
S1131C60E05AFD4F808145E0612F805D0E944E0661
S1131C702196145FC430D10531F747E060E089E86C
S1131C8092E00E949906809163028A3030F447E022
S1131C906AE587E894E00E9499061092E80680912C
S1131CA0EA06813009F069C0809168028A3019F02F
S1131CB08B3061F039C084E08093E906E0E6F2E01D
S1131CC08AE0808381838283838351C0809163020D
S1131CD08A3008F04CC084E08093E906C0E6D2E084
S1131CE0888108ED16E0F8018083898181838A81E7
S1131CF082838B818383608180E50E944307F8019E
S1131D00618181E50E944307F801628182E50E94B6
S1131D104307F801638183E50E9443078AE08883CF
S1131D2089838A838B8323C0809160028A3029F45B
S1131D3080916802809360021AC0809161028A30A7
S1131D4029F4809168028093610211C0809162023B
S1131D508A3029F4809168028093620208C08091DD
S1131D6063028A3021F4809168028093630282E0E6
S1131D708093EA0681E08093E806DF91CF911F917A
S1131D800F9108950F931F93CF93DF938091E806EB
S1131D908823E9F10E94360642E065E183E093E09E
S1131DA00E94990643E063E38AE694E00E94990660
S1131DB01AE2C0E0D0E0FE01E05AFD4F80818A3093
S1131DC030F045E0612F8AE20E944E0609C0FE0110
S1131DD0E05AFD4F808145E0612F805D0E944E06F0
S1131DE02196145FC430D10531F747E060E089E8FB
S1131DF092E00E949906809163028A3030F447E0B1
S1131E006AE587E894E00E9499061092E8068091BA
S1131E10EA06813009F069C0809168028A3019F0BD
S1131E208B3061F039C084E08093E906E0E6F2E0AB
S1131E308AE0808381838283838351C0809163029B
S1131E408A3008F04CC084E08093E906C0E6D2E012
S1131E5088810CED16E0F8018083898181838A8171
S1131E6082838B818383608180E60E944307F8012B
S1131E70618181E60E944307F801628182E60E9443
S1131E804307F801638183E60E9443078AE088835D
S1131E9089838A838B8323C0809160028A3029F4EA
S1131EA080916802809360021AC0809161028A3036
S1131EB029F4809168028093610211C080916202CA
S1131EC08A3029F4809168028093620208C080916C
S1131ED063028A3021F4809168028093630282E075
S1131EE08093EA0681E08093E806DF91CF911F9109
S1131EF00F910895CF939091670280916602990F94
S1131F00C92FCC0FCC0F9C0F8150C92FC80F8091C3
S1131F10E806882309F442C00E94360640E064E2E1
S1131F208EE894E00E94990647E060E089E892E038
S1131F300E949906809167028A3028F48091670292
S1131F4061E00E94B506809166028A3028F580918E
S1131F50660262E00E94B506EC2FF0E0E050FF4F0D
S1131F608081843469F445E067E288E994E00E9462
S1131F70990647E062E481EA94E00E9499060CC065
S1131F8045E06AE28CEA94E00E94990647E06CE33B
S1131F9084EB94E00E9499061092E8068091EA0688
S1131FA0813009F07CC0809168028A3019F08B304E
S1131FB051F02AC084E08093E9068AE080936702A6
S1131FC08093660266C0809166028A3008F061C020
S1131FD08C2F90E0FC01E050FF4F2081243451F419
S1131FE0FC01E050FF4F22E4208362E48C2F0E9426
S1131FF043074FC0FC01E050FF4F24E4208364E416
S11320008C2F0E94430745C0809166028A3018F4E1
S11320108AE080936602809166028A3041F480915E
S11320206802809367028BE08093660232C08091DD
S1132030680280936602809167022091660290E0B4
S1132040AC01440F551F880F991F880F991F880FE3
S1132050991F840F951F820F911D81349105A4F45B
S1132060809167022091660290E0AC01440F551FF5
S1132070880F991F880F991F880F991F840F951F28
S1132080820F911D892B29F48AE080936702809343
S1132090660282E08093EA0681E08093E806CF91AD
S11320A00895EF92FF920F931F93CF93809167024D
S11320B090916602880FC82FCC0FCC0F8C0F9150D3
S11320C0C82FC90F8091E806882309F459C00E94DB
S11320D0360640E068E18AE993E00E94990647E009
S11320E060E089E892E00E94990642E060E080ECBA
S11320F094E00E94990644E060E08DEC94E00E9434
S11321009906809167028A3038F48091670242E030
S113211060E5805D0E944E06809166028A3070F50B
S11321208091660242E066E5805D0E944E068C2F37
S113213090E09C01205E3D4F7901F901808190E09F
S113214001960AE010E0B8010E949622862F44E02E
S113215060E5805D0E944E06F701808190E0019663
S1132160B8010E94962244E066E5805D0E944E0616
S113217047E064E48AED94E00E9499061092E80630
S11321808091EA06813009F06BC0809168028A3040
S113219019F08B3051F019C084E08093E9068AE08D
S11321A0809367028093660255C0809166028A30EC
S11321B008F050C08DE28093E906C093ED068AE0F2
S11321C0809367028093660245C0809166028A30DC
S11321D018F48AE080936602809166028A3041F4A2
S11321E080916802809367028BE08093660232C01C
S11321F08091680280936602809167022091660252
S113220090E0AC01440F551F880F991F880F991F48
S1132210880F991F840F951F820F911D813491059A
S1132220A4F4809167022091660290E0AC01440F0F
S1132230551F880F991F880F991F880F991F840FA6
S1132240951F820F911D892B29F48AE080936702E0
S11322508093660282E08093EA0681E08093E80638
S1132260CF911F910F91FF90EF900895EF92FF92FD
S11322700F931F93CF93DF93C091ED060C2F10E0C3
S11322809091E806992309F44CC00E94360640E078
S113229068E18AE993E00E94990647E060E089E8F2
S11322A092E00E94990642E060E085EE94E00E948C
S11322B09906C80101966AE070E00E949622962F62
S11322C0D82F42E060E580E3890F0E944E0642E089
S11322D066E580E38D0F0E944E0644E060E082EFE5
S11322E094E00E949906809167028A3038F48091C4
S11322F0670244E060E5805D0E944E0680916602BC
S11323008A3068F48091660244E066E5805D0E944C
S11323104E0647E064E48AED94E00E949906109228
S1132320E8069091EA06913009F0A8C0809168020D
S11323308A3019F08B3079F056C08CE28093E9062C
S1132340C80101966AE070E00E94962260936702D9
S1132350809366028DC0809166028A3008F088C03E
S11323608CE28093E9068091670290916602880F5F
S1132370282F220F220F820F890FEE24EA94E80EF1
S1132380F801E05EFD4FF080E082EE2DF0E0E052D7
S1132390FE4FD081C083EF2DF0E0E052FE4FD0839A
S11323A0ED2FF0E0E05EFD4FF0826C2F81580E942B
S11323B043076E2D80EC8C0F0E9443076D2F80E83D
S11323C08F0D0E9443076F2D80EC8D0F0E944307F1
S11323D0C80101966AE070E00E9496226093670249
S11323E08093660245C0809166028A3018F48AE0C0
S11323F080936602809166028A3041F4809168027B
S1132400809367028BE08093660232C080916802F9
S113241080936602809167022091660290E0AC018D
S1132420440F551F880F991F880F991F880F991FF4
S1132430840F951F820F911D81349105A4F480911E
S113244067022091660290E0AC01440F551F880F8B
S1132450991F880F991F880F991F840F951F820F4A
S1132460911D892B29F48AE0809367028093660288
S113247082E08093EA0681E08093E806DF91CF91C1
S11324801F910F91FF90EF9008958091E8068823A3
S113249009F10E94360642E064E285EE92E00E9471
S11324A0990644E064E28FEF94E00E9499068091DB
S11324B0EB06813039F446E069E380E792E00E945C
S11324C0990606C046E063E38AE694E00E94990612
S11324D01092E8068091EA06813089F48091EB0637
S11324E0811107C0809168028A3019F482E08093D8
S11324F0E90682E08093EA0681E08093E806089585
S11325001F920F920FB60F9211248F93EF93FF93A4
S11325108091C6008093E3068091E3068A3369F4D0
S1132520E2EFF6E011821282178210861186109271
S11325303C0710923D071092E2068091E2068C342B
S113254068F4E091E206F0E08091E306EE50F94F82
S113255080838091E2068F5F8093E206FF91EF9182
S11325608F910F900FBE0F901F9018951F920F928E
S11325700FB60F9211248F938091E706882359F0A8
S11325808091E70681508093E7068091E7068A30C0
S113259051F4409808C08091D106813021F4409ACA
S11325A084E18093E7068F910F900FBE0F901F90E8
S11325B018951F920F920FB60F9211248F939F9329
S11325C08091CD06882331F08091CD06815080938F
S11325D0CD0607C08091CC06811103C081E08093B1
S11325E0CC068091EB0681110DC08091D006882322
S11325F031F08091D00681508093D00603C01092B0
S1132600D1065C988091D606882329F08091D6065D
S113261081508093D6068BED9BE090938500809348
S113262084009F918F910F900FBE0F901F9018956B
S11326301F920F920FB60F9211248F938091EC0684
S1132640882331F08091EC0681508093EC0602C01F
S1132650109270008F910F900FBE0F901F901895DD
S11326608FEF81B98CE184B98FE787B986E18AB9A4
S113267089E08BB985B1836685B91092B00094E086
S11326809093B100109270001092800083E08093C8
S113269081001092820081E080936F0014BC95BD8C
S11326A080936E002FEF39E688E12150304080405E
S11326B0E1F700C0000089B183FB882780F980938B
S11326C0EB068091EB0681114EC080E50E944E0717
S11326D0C8EDD6E0888381E50E944E07898382E5B0
S11326E00E944E078A8383E50E944E078B8380E60F
S11326F00E944E07CCEDD6E0888381E60E944E0707
S1132700898382E60E944E078A8383E60E944E07ED
S11327108B8380E70E944E078093D20681E70E9454
S11327204E07809369020F2EF0E0EF2EF1E0FF2EAA
S1132730F02D00EE11E0C0E08C2F0E944E07D7016F
S11327408D937D0180E88C0F0E944E07F8018193E0
S11327508F0180EC8C0F0E944E07D801DF968C937A
S1132760CF5FC03449F77894409A84E18093E706B8
S113277081E00E94D1050E9425060E94580781E04D
S11327808093E8060E94A6051092E5068091EB0668
S1132790882319F01092E60603C081E08093E606D0
S11327A05A9800EC10E0C6ECD0E00F2EFCE38F2E1C
S11327B0F7E09F2EF02D0F2EFDE36F2EF7E07F2E16
S11327C0F02D0F2EF2EFAF2EF6E0BF2EF02D552494
S11327D05394452C0F2EF5E03F2EF02D0F2EF5E3EC
S11327E0EF2EF7E0FF2EF02D0F2EF7E3CF2EF7E0BC
S11327F0DF2EF02D8091EB06813009F04FC28091DD
S1132800E606811103C18091D606811109C0809129
S1132810E906853011F04092E8063092E90608C0D6
S11328208091E906853021F41092E9064092E80689
S1132830F4018081D3012C91B0E18B9FC00111245C
S1132840822B8A3D910509F0E1C087E08093D4068C
S113285081E090E0FC01EE50F94F30812091D406E4
S113286023272093D40601968934910599F7EBE345
S1132870F7E090818091D4069813BEC0D5011196DB
S11328808C91119712964C9190E0C0979C01220F65
S1132890331F880F991F880F991F880F991F820F64
S11328A0931F840F911D8035910509F061C0F701D4
S11328B080818434A1F48091E906873011F040923C
S11328C0E80687E08093E90680916902882321F075
S11328D04092E806109269023092D6068DC080912B
S11328E0690281110C948622409269020C9486221A
S11328F0FC01EE50F94F40814D93FC01ED50F94F2E
S11329004081F90141939F0102968334910581F737
S1132910D7018C918093650280916502823419F409
S113292080E280936402F60180818053ECEDF6E04E
S11329308083809138078053818380913907805345
S1132940828380913A078053838380913607805332
S11329508093D1068091D106882311F05C9A01C03E
S11329605C983092D6064092E6061092E50644C082
S1132970D50111968C91119712964C9190E0C097C5
S11329809C01220F331F880F991F880F991F880FEE
S1132990991F820F931F840F911D8037910561F554
S11329A080916902882341F180916402803210F0A1
S11329B00C948E22F70190818091640298130C94F8
S11329C08E2280E2809364020C948E22FC01EE50ED
S11329D0F94F40814D93FC01ED50F94F4081F901CD
S11329E041939F014092E6061092E5063092D60686
S11329F002968334910551F7D50111961C921197D3
S1132A0012961C92F4011082D3011C928091E60666
S1132A10882311F40C94F021E091E5068E2F90E0C8
S1132A208F30910508F036C1FC01EE5AFF4F0C942B
S1132A30AA22E1ECF0E080818F77808387E08093A5
S1132A40E1068091E5068F5F8093E5060C94F02102
S1132A50D8018C9185FD02C00C94F02118828091DC
S1132A60E5068F5F8093E5060C94F021F8018081E0
S1132A7085FD02C00C94F02118828091E5068F5FD9
S1132A808093E5060C94F021D8018C9185FD02C059
S1132A900C94F02118825A9A8091E5068F5F8093F6
S1132AA0E5060C94F021F801808185FD02C00C94A8
S1132AB0F0218AE388838091E5068F5F8093E506A1
S1132AC00C94F021D8018C9185FD02C00C94F02166
S1132AD08091E10693E389278093E10698838091AE
S1132AE0E5068F5F8093E5060C94F021F801808160
S1132AF085FD02C00C94F0218091E10692E38927C0
S1132B008093E10698838091E5068F5F8093E506C4
S1132B100C94F021D8018C9185FD02C00C94F02115
S1132B20909169028091E106905D89278093E10686
S1132B3080916902805D88838091E5068F5F809330
S1132B40E5060C94F021F801808185FD02C00C9407
S1132B50F021909164022091E1063DEC939F912D28
S1132B601124969596959695905D92279093E106FB
S1132B7080916402839F812D112486958695869584
S1132B80805D88838091E5068F5F8093E5060C94D1
S1132B90F021D8018C9185FD02C00C94F021909114
S1132BA064023091E1068DEC989F212D1124269525
S1132BB026952695220F422F440F440F240F921B73
S1132BC0905D93279093E10690916402989F812DE4
S1132BD01124869586958695880F282F220F220F1B
S1132BE0820F981B892F805D88838091E5068F5F13
S1132BF08093E5060C94F021F801808185FD02C0E4
S1132C000C94F0218091E10688838091E5068F5F22
S1132C108093E5060C94F021D8018C9185FD02C0C7
S1132C200C94F0218DE088838091E5068F5F80937A
S1132C30E5060C94F021F801808185FD02C00C9416
S1132C40F0218AE088838091E5068F5F8093E50612
S1132C500C94F021D8018C9185FD02C00C94F021D4
S1132C6018828091E5068F5F8093E5060C94F0212D
S1132C70F801808185FD02C00C94F0215A98A1ECE2
S1132C80B0E08C9180688C931092E6061092E50671
S1132C900C94F0211092E6060C94F0218091E60643
S1132CA0882311F40C949C21E091E5068E2F90E08A
S1132CB08736910510F00C94F021FC01EF59FF4F79
S1132CC00C94AA22E1ECF0E080818F77808387E086
S1132CD08093E10684E68093E5060C94F021D80104
S1132CE08C9185FD02C00C94F02118828091E50638
S1132CF08F5F8093E5060C94F021F801808185FDB7
S1132D0002C00C94F02118828091E5068F5F8093B5
S1132D10E5060C94F021D8018C9185FD02C00C9439
S1132D20F02118825A9A4092E5060C94F021F80199
S1132D30808185FD02C00C94F0218AE38883809110
S1132D40E5068F5F8093E5060C94F021D8018C9101
S1132D5085FD02C00C94F0219091E4062091E106D7
S1132D603DEC939F912D1124969596959695905DA3
S1132D7092279093E1068091E406839F812D11248C
S1132D80869586958695805D88838091E5068F5F1C
S1132D908093E5060C94F021F801808185FD02C042
S1132DA00C94F0219091E4063091E1068DEC989F0B
S1132DB0212D1124269526952695220F422F440F66
S1132DC0440F240F921B905D93279093E1069091FA
S1132DD0E406989F812D1124869586958695880F03
S1132DE0282F220F220F820F981B892F805D888342
S1132DF08091E406803228F086E08093E5060C9406
S1132E00F0218091E5068F5F8093E5060C94F02114
S1132E10D8018C9185FD02C00C94F021E091E40668
S1132E20F0E0EE0FFF1FE052FE4F80818093CE064C
S1132E30E091CE069091E106F0E0E05CFE4F8081E7
S1132E4089278093E106E091CE06F0E0E05CFE4F36
S1132E50808188838091E5068F5F8093E5060C94DA
S1132E60F021F801808185FD02C00C94F021E091ED
S1132E70E406F0E0EE0FFF1FEF51FE4F80818093D8
S1132E80CE06E091CE069091E106F0E0E05CFE4FC4
S1132E90808189278093E106E091CE06F0E0E05C32
S1132EA0FE4F808188838DE48093E5060C94F021A5
S1132EB0D8018C9185FD02C00C94F021E091E406C8
S1132EC09091E106F0E0E052FF4F808189278093E2
S1132ED0E106E091E406F0E0E052FF4F8081888350
S1132EE08091E5068F5F8093E5060C94F021F8014C
S1132EF0808185FD02C00C94F021E091E40690915C
S1132F00E106F0E0E058FE4F808189278093E106D6
S1132F10E091E406F0E0E058FE4F808188838091E0
S1132F20E5068F5F8093E5060C94F021D8018C911F
S1132F3085FD02C00C94F021E091E4069091E10635
S1132F40F0E0EF51FF4F808189278093E106E09103
S1132F50E406F0E0EF51FF4F808188838091E5061D
S1132F608F5F8093E5060C94F021F801808185FD44
S1132F7002C00C94F021E091E4069091E106F0E0A7
S1132F80EF57FE4F808189278093E106E091E406A4
S1132F90F0E0EF57FE4F808188838091E5068F5FD4
S1132FA08093E5060C94F021D8018C9185FD02C034
S1132FB00C94F021E091E4069091E106F0E0EE51EA
S1132FC0FF4F808189278093E106E091E406F0E0D9
S1132FD0EE51FF4F808188838091E5068F5F809357
S1132FE0E5060C94F021F801808185FD02C00C9463
S1132FF0F021E091E4069091E106F0E0EE57FE4FF7
S1133000808189278093E106E091E406F0E0EE57A1
S1133010FE4F808188838091E5068F5F8093E5066B
S11330200C94F021D8018C9185FD02C00C94F02100
S1133030E091E4069091E106F0E0ED51FF4F8081CC
S113304089278093E106E091E406F0E0ED51FF4F1B
S1133050808188838091E5068F5F8093E5060C94D8
S1133060F021F801808185FD02C00C94F021E091EB
S1133070E4069091E106F0E0ED57FE4F8081892748
S11330808093E106E091E406F0E0ED57FE4F808185
S113309088838091E5068F5F8093E5060C94F02188
S11330A0D8018C9185FD02C00C94F021E091E406D6
S11330B09091E106F0E0EC51FF4F808189278093E5
S11330C0E106E091E406F0E0EC51FF4F8081888353
S11330D08091E5068F5F8093E5060C94F021F8015A
S11330E0808185FD02C00C94F021E091E40690916A
S11330F0E106F0E0EC57FE4F808189278093E106DA
S1133100E091E406F0E0EC57FE4F808188838091E3
S1133110E5068F5F8093E5060C94F021D8018C912D
S113312085FD02C00C94F021E091E4069091E10643
S1133130F0E0EB51FF4F808189278093E106E09115
S1133140E406F0E0EB51FF4F808188838091E5062F
S11331508F5F8093E5060C94F021F801808185FD52
S113316002C00C94F021E091E4069091E106F0E0B5
S1133170EB57FE4F808189278093E106E091E406B6
S1133180F0E0EB57FE4F808188838091E5068F5FE6
S11331908093E5060C94F021D8018C9185FD02C042
S11331A00C94F021E091E4069091E106F0E0EA51FC
S11331B0FF4F808189278093E106E091E406F0E0E7
S11331C0EA51FF4F808188838091E5068F5F809369
S11331D0E5060C94F021F801808185FD02C00C9471
S11331E0F021E091E4069091E106F0E0EA57FE4F09
S11331F0808189278093E106E091E406F0E0EA57B4
S1133200FE4F808188838091E5068F5F8093E50679
S11332100C94F021D8018C9185FD02C00C94F0210E
S1133220E091E4069091E106F0E0E951FF4F8081DE
S113323089278093E106E091E406F0E0E951FF4F2D
S1133240808188838091E5068F5F8093E5060C94E6
S1133250F021F801808185FD02C00C94F021E091F9
S1133260E4069091E106F0E0E957FE4F808189275A
S11332708093E106E091E406F0E0E957FE4F808197
S113328088838091E5068F5F8093E5060C94F02196
S1133290D8018C9185FD02C00C94F021E091E406E4
S11332A09091E106F0E0E851FF4F808189278093F7
S11332B0E106E091E406F0E0E851FF4F8081888365
S11332C08091E5068F5F8093E5060C94F021F80168
S11332D0808185FD02C00C94F021E091E406909178
S11332E0E106F0E0E857FE4F808189278093E106EC
S11332F0E091E406F0E0E857FE4F808188838091F6
S1133300E5068F5F8093E5060C94F021D8018C913B
S113331085FD02C00C94F021E091E4069091E10651
S1133320F0E0E751FF4F808189278093E106E09127
S1133330E406F0E0E751FF4F808188838091E50641
S11333408F5F8093E5060C94F021F801808185FD60
S113335002C00C94F021E091E4069091E106F0E0C3
S1133360E757FE4F808189278093E106E091E406C8
S1133370F0E0E757FE4F808188838091E5068F5FF8
S11333808093E5060C94F021D8018C9185FD02C050
S11333900C94F021E091E4069091E106F0E0E6510E
S11333A0FF4F808189278093E106E091E406F0E0F5
S11333B0E651FF4F808188838091E5068F5F80937B
S11333C0E5060C94F021F801808185FD02C00C947F
S11333D0F021E091E4069091E106F0E0E657FE4F1B
S11333E0808189278093E106E091E406F0E0E657C6
S11333F0FE4F808188838091E5068F5F8093E50688
S1133400EFC7D8018C9185FFEBC7E091E40690915A
S1133410E106F0E0E551FF4F808189278093E106C2
S1133420E091E406F0E0E551FF4F808188838091CC
S1133430E5068F5F8093E506D3C7F801808185FF99
S1133440CFC7E091E4069091E106F0E0E557FE4F26
S1133450808189278093E106E091E406F0E0E55756
S1133460FE4F808188838091E5068F5F8093E50617
S1133470B7C7D8018C9185FFB3C7E091E40690915A
S1133480E106F0E0E451FF4F808189278093E10653
S1133490E091E406F0E0E451FF4F8081888380915D
S11334A0E5068F5F8093E5069BC7F801808185FF61
S11334B097C7E091E4069091E106F0E0E457FE4FEF
S11334C0808189278093E106E091E406F0E0E457E7
S11334D0FE4F808188838091E5068F5F8093E506A7
S11334E07FC7D8018C9185FF7BC7E091E40690915A
S11334F0E106F0E0E351FF4F808189278093E106E4
S1133500E091E406F0E0E351FF4F808188838091ED
S1133510E5068F5F8093E50663C7F801808185FF28
S11335205FC7E091E4069091E106F0E0E357FE4FB7
S1133530808189278093E106E091E406F0E0E35777
S1133540FE4F808188838091E5068F5F8093E50636
S113355047C7D8018C9185FF43C7E091E406909159
S1133560E106F0E0E251FF4F808189278093E10674
S1133570E091E406F0E0E251FF4F8081888380917E
S1133580E5068F5F8093E5062BC7F801808185FFF0
S113359027C7E091E4069091E106F0E0E257FE4F80
S11335A0808189278093E106E091E406F0E0E25708
S11335B0FE4F808188838091E5068F5F8093E506C6
S11335C00FC7D8018C9185FF0BC7E091E406909159
S11335D0E106F0E0E151FF4F808189278093E10605
S11335E0E091E406F0E0E151FF4F8081888380910F
S11335F0E5068F5F8093E506F3C6F801808185FFB9
S1133600EFC6E091E4069091E106F0E0E157FE4F49
S1133610808189278093E106E091E406F0E0E15798
S1133620FE4F808188838091E5068F5F8093E50655
S1133630D7C6D8018C9185FFD3C6E091E40690915A
S1133640E106F0E0E051FF4F808189278093E10695
S1133650E091E406F0E0E051FF4F8081888380919F
S1133660E5068F5F8093E506BBC6F801808185FF80
S1133670B7C6E091E4069091E106F0E0E057FE4F12
S1133680808189278093E106E091E406F0E0E05729
S1133690FE4F808188838091E5068F5F8093E506E5
S11336A09FC6D8018C9185FF9BC6E091E40690915A
S11336B0E106F0E0EF50FF4F808189278093E10617
S11336C0E091E406F0E0EF50FF4F80818883809121
S11336D0E5068F5F8093E50683C6F801808185FF48
S11336E07FC6E091E4069091E106F0E0EF56FE4FCC
S11336F0808189278093E106E091E406F0E0EF56AB
S1133700FE4F808188838091E5068F5F8093E50674
S113371067C6D8018C9185FF63C6E091E406909159
S1133720E106F0E0EE50FF4F808189278093E106A7
S1133730E091E406F0E0EE50FF4F808188838091B1
S1133740E5068F5F8093E5064BC6F801808185FF0F
S113375047C6E091E4069091E106F0E0EE56FE4F94
S1133760808189278093E106E091E406F0E0EE563B
S1133770FE4F808188838091E5068F5F8093E50604
S11337802FC6D8018C9185FF2BC6E091E406909159
S1133790E106F0E0ED50FF4F808189278093E10638
S11337A0E091E406F0E0ED50FF4F80818883809142
S11337B0E5068F5F8093E50613C6F801808185FFD7
S11337C00FC6E091E4069091E106F0E0ED56FE4F5D
S11337D0808189278093E106E091E406F0E0ED56CC
S11337E0FE4F808188838091E5068F5F8093E50694
S11337F0F7C5D8018C9185FFF3C5E091E40690915B
S1133800E106F0E0EC50FF4F808189278093E106C8
S1133810E091E406F0E0EC50FF4F808188838091D2
S1133820E5068F5F8093E506DBC5F801808185FF9F
S1133830D7C5E091E4069091E106F0E0EC56FE4F26
S1133840808189278093E106E091E406F0E0EC565C
S1133850FE4F808188838091E5068F5F8093E50623
S1133860BFC5D8018C9185FFBBC5E091E40690915A
S1133870E106F0E0EB50FF4F808189278093E10659
S1133880E091E406F0E0EB50FF4F80818883809163
S1133890E5068F5F8093E506A3C5F801808185FF67
S11338A09FC5E091E4069091E106F0E0EB56FE4FEF
S11338B0808189278093E106E091E406F0E0EB56ED
S11338C0FE4F808188838091E5068F5F8093E506B3
S11338D087C5D8018C9185FF83C5E091E40690915A
S11338E0E106F0E0EA50FF4F808189278093E106EA
S11338F0E091E406F0E0EA50FF4F808188838091F4
S1133900E5068F5F8093E5066BC5F801808185FF2E
S113391067C5E091E4069091E106F0E0EA56FE4FB7
S1133920808189278093E106E091E406F0E0EA567D
S1133930FE4F808188838091E5068F5F8093E50642
S11339404FC5D8018C9185FF4BC5E091E406909159
S1133950E106F0E0E950FF4F808189278093E1067A
S1133960E091E406F0E0E950FF4F80818883809184
S1133970E5068F5F8093E50633C5F801808185FFF6
S11339802FC5E091E4069091E106F0E0E956FE4F80
S1133990808189278093E106E091E406F0E0E9560E
S11339A0FE4F808188838091E5068F5F8093E506D2
S11339B017C5D8018C9185FF13C5E091E406909159
S11339C0E106F0E0E850FF4F808189278093E1060B
S11339D0E091E406F0E0E850FF4F80818883809115
S11339E0E5068F5F8093E506FBC4F801808185FFBF
S11339F0F7C4E091E4069091E106F0E0E856FE4F4A
S1133A00808189278093E106E091E406F0E0E8569E
S1133A10FE4F808188838091E5068F5F8093E50661
S1133A20DFC4D8018C9185FFDBC4E091E40690915A
S1133A30E106F0E0E750FF4F808189278093E1069B
S1133A40E091E406F0E0E750FF4F808188838091A5
S1133A50E5068F5F8093E506C3C4F801808185FF86
S1133A60BFC4E091E4069091E106F0E0E756FE4F12
S1133A70808189278093E106E091E406F0E0E7562F
S1133A80FE4F808188838091E5068F5F8093E506F1
S1133A90A7C4D8018C9185FFA3C4E091E40690915A
S1133AA0E106F0E0E650FF4F808189278093E1062C
S1133AB0E091E406F0E0E650FF4F80818883809136
S1133AC0E5068F5F8093E5068BC4F801808185FF4E
S1133AD087C4E091E4069091E106F0E0E656FE4FDB
S1133AE0808189278093E106E091E406F0E0E656C0
S1133AF0FE4F808188838091E5068F5F8093E50681
S1133B006FC4D8018C9185FF6BC4E091E406909159
S1133B10E106F0E0E550FF4F808189278093E106BC
S1133B20E091E406F0E0E550FF4F808188838091C6
S1133B30E5068F5F8093E50653C4F801808185FF15
S1133B404FC4E091E4069091E106F0E0E556FE4FA3
S1133B50808189278093E106E091E406F0E0E55650
S1133B60FE4F808188838091E5068F5F8093E50610
S1133B7037C4D8018C9185FF33C4E091E406909159
S1133B80E106F0E0E450FF4F808189278093E1064D
S1133B90E091E406F0E0E450FF4F80818883809157
S1133BA0E5068F5F8093E5061BC4F801808185FFDD
S1133BB017C4E091E4069091E106F0E0E456FE4F6C
S1133BC0808189278093E106E091E406F0E0E456E1
S1133BD0FE4F808188838091E5068F5F8093E506A0
S1133BE0FFC3D8018C9185FFFBC3E091E40690915B
S1133BF0E106F0E0E350FF4F808189278093E106DE
S1133C00E091E406F0E0E350FF4F808188838091E7
S1133C10E5068F5F8093E506E3C3F801808185FFA5
S1133C20DFC3E091E4069091E106F0E0E356FE4F35
S1133C30808189278093E106E091E406F0E0E35671
S1133C40FE4F808188838091E5068F5F8093E5062F
S1133C50C7C3D8018C9185FFC3C3E091E40690915A
S1133C60E106F0E0E250FF4F808189278093E1066E
S1133C70E091E406F0E0E250FF4F80818883809178
S1133C80E5068F5F8093E506ABC3F801808185FF6D
S1133C90A7C3E091E4069091E106F0E0E256FE4FFE
S1133CA0808189278093E106E091E406F0E0E25602
S1133CB0FE4F808188838091E5068F5F8093E506BF
S1133CC08FC3D8018C9185FF8BC3E091E40690915A
S1133CD0E106F0E0E150FF4F808189278093E106FF
S1133CE0E091E406F0E0E150FF4F80818883809109
S1133CF0E5068F5F8093E50673C3F801808185FF35
S1133D006FC3E091E4069091E106F0E0E156FE4FC6
S1133D10808189278093E106E091E406F0E0E15692
S1133D20FE4F808188838091E5068F5F8093E5064E
S1133D3057C3D8018C9185FF53C38091E406803228
S1133D40B9F480916902811108C08091E10694E47C
S1133D5089278093E106988318C090916502809129
S1133D60E10689278093E1068091650288830DC06E
S1133D70909164028091E10689278093E106809105
S1133D806402888380E2809364028091E5068F5FF9
S1133D908093E50625C3F801808185FF21C39091B6
S1133DA0D1068091E106905D89278093E106809198
S1133DB0D106805D88838091E5068F5F8093E50658
S1133DC00FC3D8018C9185FF0BC3ECEDF6E0908115
S1133DD08091E106905D89278093E1068081805D72
S1133DE088838091E5068F5F8093E506F9C2F80128
S1133DF0808185FFF5C2ECEDF6E091818091E106CA
S1133E00905D89278093E1068181805D888380911C
S1133E10E5068F5F8093E506E3C2D8018C9185FFA8
S1133E20DFC2ECEDF6E092818091E106905D892796
S1133E308093E1068281805D88838091E5068F5FAF
S1133E408093E506CDC2F801808185FFC9C2ECEDFF
S1133E50F6E093818091E106905D89278093E106E5
S1133E608381805D88838DE48093E506B9C2D8019F
S1133E708C9185FFB5C28091E10688838091E50627
S1133E808F5F8093E506ACC2F801808185FFA8C2EC
S1133E908DE088838091E5068F5F8093E506A0C25C
S1133EA0D8018C9185FF9CC28AE088838091E506C5
S1133EB08F5F8093E50694C2F801808185FF90C2EC
S1133EC018828091E5068F5F8093E50689C2D80148
S1133ED08C9185FF85C25A98E1ECF0E0808180687E
S1133EE0808386E08093EC06509270008091E50612
S1133EF08F5F8093E50674C28091EC06882309F4F1
S1133F008BC1D50118968C91189719962C91B0E114
S1133F108B9FC0011124822B8A3D910509F0E8C0D2
S1133F2087E08093D40681E090E0FC01EE50F94FE5
S1133F3030812091D40623272093D406019687301C
S1133F40910599F7F50197818091D4069813D0C013
S1133F50818122814091E40690E0C097BC01660F04
S1133F60771F880F991F880F991F880F991F860F35
S1133F70971F30E020533109820F931F50E08417BC
S1133F80950709F0B5C0E091E406F0E0EE0FFF1FDD
S1133F90E052FE4F80818093CE06E091CE06F0E0A1
S1133FA0E050FF4F8081843409F43FC0E091CE0695
S1133FB0F0E0E050FF4F80818234B1F4E091CE060E
S1133FC0D50113968C91F0E0E050FF4F9081981743
S1133FD059F08091D206882339F04092D10680911D
S1133FE0D2068093D0065C9AE091CE06D501139652
S1133FF08C911397F0E0E050FF4F808313968C91DF
S11340008F3419F482E480936502E091CE06D501E1
S113401015968C91F0E0E056FE4F8083E091CE0639
S1134020F0E0E05CFE4F82E48083E091E406F0E09F
S1134030EE0FFF1FEF51FE4F80818093CE06E0917B
S1134040CE06F0E0E050FF4F8081843409F43FC095
S1134050E091CE06F0E0E050FF4F80818234B1F46D
S1134060E091CE06D50114968C91F0E0E050FF4F1C
S11340709081981759F08091D206882339F04092A4
S1134080D1068091D2068093D0065C9AE091CE0648
S1134090D50114968C911497F0E0E050FF4F808383
S11340A014968C918F3419F482E480936502E09124
S11340B0CE06D50116968C91F0E0E056FE4F808333
S11340C0E091CE06F0E0E05CFE4F82E48083E09174
S11340D0E406F0E0E058FE4F1082F50111821282EE
S11340E010861186109270001092E5061092E60672
S11340F0D50117968C91179718962C91B0E18B9F48
S1134100C0011124822B8A3D910509F069C187E021
S11341108093D40681E090E0FC01EE50F94F3081A9
S11341202091D40623272093D40601968630910546
S113413099F7F50196818091D406981351C1818134
S1134140428190E0C0979C01220F331F880F991F72
S1134150880F991F880F991F820F931F840F911D39
S113416080359105C9F580916902882321F0838106
S1134170805380936902D50114968C9114971596F7
S11341809C91880F8056282F220F220F820F905364
S1134190890F8093640280916402803238F4E09144
S11341A06402F0E0E05CFE4F8FE480838091E906D6
S11341B0853021F41092E9064092E8061092E00658
S11341C0F5011182128217821086109270001092EB
S11341D0E5061092E60604C18181428190E0C09711
S11341E09C01220F331F880F991F880F991F880F76
S11341F0991F820F931F840F911D8037910509F039
S1134200EFC01182128217821086109270001092F1
S1134210E5061092E606E4C08091E5068F5F809380
S1134220E506DEC08091E406803208F054C0E091D7
S1134230E406F0E0E058FE4F8081853009F042C08A
S1134240E091E406F0E0EE0FFF1FE052FE4F8081A4
S11342508093CE06E091CE06F0E0E050FF4F8081DF
S1134260843471F0E091CE06F0E0E050FF4F85E435
S11342708083E091CE06F0E0E05CFE4F82E4808330
S1134280E091E406F0E0EE0FFF1FEF51FE4F808156
S11342908093CE06E091CE06F0E0E050FF4F80819F
S11342A0843409F444C0E091CE06F0E0E050FF4FBE
S11342B085E48083E091CE06F0E0E05CFE4F82E48A
S11342C0808335C0E091E406F0E0E058FE4F808141
S11342D08F5F80832CC080916902882341F1809193
S11342E0E006853030F48091E0068F5F8093E0062D
S11342F01EC08091E9068530D1F08091E906845191
S11343008A30A8F08091E906823089F08091E9062C
S113431088528A3060F08091E906843041F08091BF
S1134320E9068A3021F03092E9064092E8061092BC
S1134330E5061092E60654C08091E406803221F42A
S113434080E48093E4060CC08091E406803419F480
S11343501092E40605C08091E4068F5F8093E40622
S11343608091E406803250F5E091E406F0E0EE0F2F
S1134370FF1FE052FE4F80818093CE06E091CE066F
S1134380F0E0E050FF4F8081843419F04092E6065B
S113439027C0E091E406F0E0EE0FFF1FEF51FE4F5F
S11343A080818093CE06E091CE06F0E0E050FF4F8E
S11343B080818434A9F04092E60612C08FE4809391
S11343C06502E0E0F1E020E431E092E481918F3491
S11343D011F4909365022E173F07C1F74092E60649
S11343E08091EA06811115C00E94EE06809368024E
S11343F085B18C6185B9809168028F3038F5409A17
S11344004092EA0684E18093E706852D0E94D10557
S11344101DC08091EA068230C8F08091E7068111C0
S113442015C00E94EE068F3059F48091EA0690E0A0
S1134430019664E170E00E9496228093EA0603C02C
S113444082E08093EA0685B18C6185B98091CC06BF
S1134450813051F480E00E94D1051092E906409227
S1134460E80682E08093CC06E091E9068E2F90E086
S11344708F32910510F00C94FA13FC01E853FF4FAE
S11344800C94AA220E94D6070C94E7130E943708C2
S11344900C94E7130E94450A0C94E7130E94D70B6F
S11344A00C94E7130E94020C0C94E7130E94C308B7
S11344B00C94E7130E94270C0C94E7130E940A0E35
S11344C00C94E7130E94C20E0C94E7130E947A0F17
S11344D00C94E7130E9451100C94E7130E943611B8
S11344E00C94E7130E94100D0C94E7130E944512DC
S11344F00C94E7130E94760B0C94E7130E94E20DD0
S11345000C94E7130E9494070C94E713A0E0B1E025
S113451020EA31E083E090E00C947814A0E2B1E06A
S113452020EC31E083E090E00C94E61497FB072E36
S113453016F4009407D077FD09D00E94B02207FC3E
S113454005D03EF4909581959F4F0895709561959F
S11345507F4F0895EE0FFF1F0590F491E02D09940D
S1134560AA1BBB1B51E107C0AA1FBB1FA617B70795
S113457010F0A61BB70B881F991F5A95A9F78095B1
S10F45809095BC01CD010895F894FFCF84
S113458C42424242424242424242424242424242FB
S113459C42424242424242424242424242424242EB
S11345AC42424242424242424242424242424242DB
S11345BC42424242424242424242424242424242CB
S11345CC42424242424242424242424242424242BB
S11345DC42424242424242424242424242424242AB
S11345EC424242424242424242424242424242429B
S11345FC424242424242424242424242424242428B
S113460C000000000000000000000000000000009A
S113461C000000000000000000000000000000008A
S113462C4C4C4C4C4C4C4C4C4C4C4C4C4C4C4C4CBA
S113463C4C4C4C4C4C4C4C4C4C4C4C4C4C4C4C4CAA
S113464C4C4C4C4C4C4C4C4C4C4C4C4C4C4C4C4C9A
S113465C4C4C4C4C4C4C4C4C4C4C4C4C4C4C4C4C8A
S113466C0102030405060708090A0B0C0D0E0F10B2
S113467C1112131415161718191A1B1C1D1E1F20A2
S113468C2122232425262728292A2B2C2D2E2F3092
S113469C3132333435363738393A3B3C3D3E3F4082
S11346AC0102030405060708090A0B0C0D0E0F1072
S11346BC1112131415161718191A1B1C1D1E1F2062
S11346CC2122232425262728292A2B2C2D2E2F3052
S11346DC3132333435363738393A3B3C3D3E3F4042
S11346EC0A0A0A0A20420A0A0F01CFD300CFD320A8
S11346FCC4CA00D0E5E6E8EC00D0E5E6E8EC2031ED
S113470C00D0E5E6E8EC2032002A2DCEF2ECE5ED03
S113471CE000CEF2F1F3F2F1F2E2F3E5F200C7E0DD
S113472CE1EBEEEAE8F0EEE2E0ED002A2DCEF2EC5D
S113473CE5EDE0202020232DD0E0E7E1EBEEEA2E9E
S113474C002A2DCEF2ECE5EDE0202020C8E4E5F2C1
S113475C20E7E0F0FFE400D0E0E7E1EBEEEAE8F07C
S113476CEEE2E0ED00CDE5F220F1E2FFE7E800C770
S113477CE0EAF0EEE9F2E500E2F1E520E7E0ECEA4C
S113478CE82100C2E2E5E4E8F2E520EFE0F0EEEB2C
S113479CFC002A2DCEF2ECE5EDE020202020202098
S11347AC20232DC2E2EEE400F0E5E6E8EC20323FF3
S11347BC00F0E5E6E8EC20313F002A2DCDE5F220AF
S11347CC2020202020202020202020232DC4E00085
S11347DCCDE520E2E5F0EDFBE900CFE0F0EEEBE80F
S11347EC20F1E1F0EEF8E5EDFB00312DCFE0F0EE39
S11347FCEBFC20E0E4ECE8EDE000322DCFE0F0EE51
S113480CEBFC20C4CFCDCA00332DCDE0F1F2F0EE99
S113481CE9EAE020DDCCC700342DC0E4F0E5F1E09A
S113482CF6E8FF20DDCCC700352DCFF3EBFCF220EE
S113483CC4CFCDCA20EEF2EAEB2E00352DCFF3EB2C
S113484CFCF220C4CFCDCA20EFEEE4EAEB2E003606
S113485C2DC2F0E5ECFF20F2F0E5E2EEE3E80030E7
S113486C2C32356300302C356300302C3735630023
S113487C316300312C32356300312C356300312C1B
S113488C37356300326300322C3235206300372D08
S113489CD1E1F0EEF120EDE0F1F2F0EEE5EA00C248
S11348ACE5F0EDF3F2FC00EA20E7E0E2EEE4F1EAF5
S11348BCE8EC00EDE0F1F2F0EEE9EAE0EC3F00CDDB
S11348CCE0F1F2F0EEE9EAE800E2EEF1F1F2E0ED0B
S11348DCEEE2EBE5EDFB00E4EE20E7EEE2EEE4F1D4
S11348ECEAE8F500CFF3EBFCF220C4CFCDCA00EE1E
S11348FCF2EAEBFEF7E5ED00E0E4ECE8EDE8F1F2CA
S113490CF0E0F2EEF0E000232DE2E2EEE400CDEE76
S113491CECE5F020DDCCC700CEF2EAEBFEF7E5EDDA
S113492C00232DC2EAEBFEF7E8F2FC00C2EAEBFE30
S113493CF7E5ED00232DCEF2EAEBFEF7E8F2FC00EE
S113494C3E20CDEEECE5F020DDCCC73A002020C0B3
S113495CE4F0E5F120DDCCC73A00232DC8E7ECE503
S113496CEDE8F2FC002020CDEEECE5F020DDCCC728
S113497C3A003E20C0E4F0E5F120DDCCC73A00F16A
S113498C20EFF3EBFCF2EEEC00F0FCFE1F0F07073C
S113499C0707070F1FFEFCF0FFFFFF0000000000DD
S11349AC00000000FFFFFF0F3F7FF8F0E0E0E0E0C5
S11349BCE0F0F87F3F0FC0E0F0783C1EFFFFFF00F3
S11349CC0000000000010100000000FFFFFF0000D8
S11349DC00000000E0E0E0E0E0E0FFFFFFE0E0E0EA
S11349ECE0E0E0383C3E1E0F07070707070F1EFEEA
S11349FCFCF8000080C0C0E0E0707038381C1F0F59
S1134A0C07FEFFFFE3E1E0E0E0E0E0E0E0E0E0E00F
S1134A1C070707070787C7E7F77F3F1F0F07030041
S1134A2C080C0E0F07070707070F3EFEFCF00C3CA3
S1134A3C7C7CF0E0E0E0E0E0F07C7F3F0F000000E5
S1134A4C00C0F0FC7E1FFFFFFF000000C0F0FCFF65
S1134A5C9F87818080FFFFFF808080030303030313
S1134A6C03030303FFFFFF030303C0FCFF7F0707DC
S1134A7C0707070707070707071F1F1F1E0F07074F
S1134A8C0707070F3EFEFCF00C3C7C7CF0E0E0E0FA
S1134A9CE0E0F07C7F3F0FF0FCFE3E0F07070707BA
S1134AAC070F1E1E1C18FFFFFF3E0F070707070703
S1134ABC0F3EFEFCF00F3F7F7CF0E0E0E0E0E0F026
S1134ACC7C7F3F0F3F3F3F07070707070707078711
S1134ADCFFFFFF00000000C0E0F0783C1E0F07034E
S1134AEC010000000000FFFFFF00000000000000B8
S1134AFC0000F8FCFE0F07070707070FFEFCF80081
S1134B0CC0F1FB7F1F0E0E0E0E0E1F7FFBF1C00FAC
S1134B1C3F7F7CF0E0E0E0E0E0F07C7F3F0FF0FCD6
S1134B2CFE3E0F07070707070F3EFEFCF00F3F7F03
S1134B3C7CF0E0E0E0E0E0F07CFFFFFF18387878F0
S10F4B4CF0E0E0E0E0E0F07C7F3F0F00D0
S9030000FC
